:020000000C945E
:100002002A000C9400000C9400000C9400000C9444
:1000120000000C9400000C9400000C9400000C945E
:1000220000000C9400000C9400000C9400000C944E
:1000320000000C9400000C9400000C9400000C943E
:1000420000000C9400000C9400000C9400000C942E
:100052000000F894EE27ECBBF1E0FBBFEBBFE5BF7D
:100062008DE0A2E0BB27ED938A95E9F780E094E06A
:10007200A0E6ED930197E9F7EFE5EDBFE4E0EEBF0F
:10008200C0E6D1E00C944500EFEFE4BBE0E0E5BB55
:10009200A89A20D0A8981ED0A99A1CD0A9981AD0A4
:1000A200AA9A18D0AA9816D0AB9A14D0AB9812D0AC
:1000B200AC9A10D0AC980ED0AD9A0CD0AD980AD0B4
:1000C200AE9A08D0AE9806D0AF9A04D0AF9802D0BC
:1000D200DFCFFFCFA8EEB3E00C946F00109639F09B
:1000E20080ED97E00197F1F7A8951197C9F7089568
:00000001FF
