:060000000C9432000C9488
:1000060000000C9400000C9400000C9400000C946A
:1000160000000C9400000C9400000C9400000C945A
:1000260000000C9400000C9400000C9400000C944A
:1000360000000C9400000C9400000C9400000C943A
:1000460000000C9400000C9400000C9400000102C7
:100056000408102040800800600154000000F89455
:10006600EE27ECBBF1E0FBBFEBBFE5BF8DE0A2E006
:10007600BB27ED938A95E9F780E094E0A0E6ED933F
:100086000197E9F7ECE5F0E085919591009761F02D
:10009600A591B59105901590BF01F00105900D92BF
:1000A6000197E1F7FB01F0CFEFE5EDBFE4E0EEBF2E
:1000B600C0E6D1E00C945F00D09AE0E0EBBB10E024
:1000C600183090F4E12FF0E0E05AFE4FE081EBBBF0
:1000D600A4EFB1E00E947900E0E0EBBBA5E0B0E060
:1000E6000E9479001F5FECCFEACFFFCF109639F060
:1000F60080ED97E00197F1F7A8951197C9F7089554
:00000001FF
