:080000000C9433000C94000085
:100008000C9400000C9400000C9400000C94000068
:100018000C9400000C9400000C9400000C94000058
:100028000C9400000C9400000C9400000C94000048
:100038000C9400000C9400000C9400000C94000038
:100048000C9400000C9400000C9400003F065B4FD9
:10005800666D7D077F6F0A00600154000000F89408
:10006800EE27ECBBF1E0FBBFEBBFE5BF8DE0A2E004
:10007800BB27ED938A95E9F780E094E0A0E6ED933D
:100088000197E9F7EEE5F0E085919591009761F029
:10009800A591B59105901590BF01F00105900D92BD
:1000A8000197E1F7FB01F0CFEFE5EDBFE4E0EEBF2C
:1000B800C0E6D1E00C946000EFEFE7BBE1BBE8BB22
:1000C800E0E0E2BB5524EAE05E1630F54424EAE0BD
:1000D8004E1600F57724E2E07E16D0F4E42DF0E029
:1000E800E05AFE4FE081E2BBC098A8ECB0E00E9465
:1000F8009200C09AE52DF0E0E05AFE4FE081E2BBA5
:10010800C198A8ECB0E00E949200C19A7394E3CF22
:100118004394DDCF5394D7CFD5CFFFCF109639F086
:1001280080ED97E00197F1F7A8951197C9F7089521
:00000001FF
