:100000000C942A000C9447000C9447000C94470071
:100010000C9447000C9447000C9447000C94470044
:100020000C9447000C9447000C9447000C94470034
:100030000C9447000C9447000C9447000C94470024
:100040000C9447000C9447000C9447000C94470014
:100050000C94470011241FBECFE5D4E0DEBFCDBF16
:1000600010E0A0E6B0E0EAEEF2E002C005900D92EA
:10007000A237B107D9F720E0A2E7B0E001C01D9296
:10008000A437B207E1F70E9448010C9473010C9465
:1000900000009BB39F70282F207F922B9BBB9BB3AC
:1000A0009E7F9BBB9BB394609BBBEFECF7E03197CB
:1000B000F1F700C000009BB39B7F9BBBEFE8F1E032
:1000C0003197F1F700C000002BB3F0E18F9FC00122
:1000D0001124922F9F70892B8BBB8BB384608BBBB9
:1000E0008FEC97E00197F1F700C000008BB38B7F96
:1000F0008BBBEFE9FFE03197F1F700C000000895F6
:100100008CE00E944900089581E00E944900089512
:100110002FEF89EF90E0215080409040E1F700C040
:10012000000082E00E94490088E20E9449000E948B
:10013000800086E00E9449000E94840088E00E94BE
:100140004900089582E00E94490008959BB39F7082
:10015000282F207F922B9BBB9BB391609BBB9BB3B3
:1001600094609BBBEFECF7E03197F1F700C0000023
:100170009BB39B7F9BBBEFE8F1E03197F1F700C0A9
:1001800000002BB3F0E18F9FC0011124922F9F70CC
:10019000892B8BBB8BB384608BBB8FEC97E0019773
:1001A000F1F700C000008BB38B7F8BBBEFE9FFE062
:1001B0003197F1F700C0000008958BB38E7F8BBBA1
:1001C0008BB384608BBB84E182BB8FEC97E001979B
:1001D000F1F700C000008BB38B7F8BBB0895CF93EA
:1001E000DF93D62F813019F0823059F022C00E945F
:1001F000A200C0E003C00E94DD00CF5FCD17D8F39E
:1002000018C08BB38E7F8BBB8BB384608BBB80ECB1
:1002100082BB8FEC97E00197F1F700C000008BB331
:100220008B7F8BBBC0E003C00E94DD00CF5FCD178A
:10023000D8F3DF91CF910895EF92FF920F931F9320
:10024000CF938C01C0E012C07801EC0EF11CF701D5
:1002500080818823B9F0C41304C060E082E00E946A
:10026000EF00F70180810E94A600CF5F2C2F30E0C5
:100270004091730080917200849FC001112428175F
:10028000390714F3CF911F910F91FF90EF900895CC
:100290008FEF8ABB1BBA60E182E00E94880080E693
:1002A00090E00E941C012FEF8DE399E421508040E3
:1002B0009040E1F700C000008BB3806E8BBB2FEF46
:1002C00089E698E1215080409040E1F700C00000AD
:1002D0001BBA2FEF89E698E1215080409040E1F76A
:0A02E00000C00000E9CFF894FFCF42
:1002EA0068656C6C6F20692073656E64203462697E
:0202FA0074008E
:00000001FF
