:100000000C942A000C943F000C943F000C943F0089
:100010000C943F000C943F000C943F000C943F0064
:100020000C943F000C943F000C943F000C943F0054
:100030000C943F000C943F000C943F000C943F0044
:100040000C943F000C943F000C943F000C943F0034
:100050000C943F0011241FBECFEFD2E0DEBFCDBF16
:1000600011E0A0E0B1E0ECEDF1E002C005900D92EE
:10007000AC31B107D9F70E94DB000C94EC000C9472
:10008000000095B19F70282F207F922B95B995B1D4
:100090009E7F95B995B1926095B932E03A95F1F7A6
:1000A00000C095B19D7F95B9EFE8F1E03197F1F788
:1000B00000C0000025B1F0E18F9FC0011124922FF4
:1000C0009F70892B85B985B1826085B932E03A95F8
:1000D000F1F700C085B18D7F85B98FE99FE0019769
:1000E000F1F700C00000089595B19F70282F207F80
:1000F000922B95B995B1916095B995B1926095B9EA
:1001000032E03A95F1F700C095B19D7F95B9EFE8DF
:10011000F1E03197F1F700C0000025B1F0E18F9FC9
:10012000C0011124922F9F70892B85B985B18260FF
:1001300085B932E03A95F1F700C085B18D7F85B978
:100140008FE99FE00197F1F700C0000008958FEF5D
:1001500084B98FE39CE90197F1F700C0000082E0C9
:100160000E94410088E20E9441008CE00E94410010
:1001700086E00E94410081E00E9441008FE99FE0FB
:100180000197F1F700C0000008950F931F93CF93DC
:10019000DF938C01C0E0D0E003C00E947400219680
:1001A000F801EC0FFD1F80818111F7CFDF91CF9116
:1001B0001F910F91089585B18B7F85B90E94A7008B
:1001C00080E091E00E94C50080EC0E94410080E147
:0C01D00091E00E94C500FFCFF894FFCF23
:1001DC00456C656374726F6E696357494E47530083
:0C01EC0048656C6C6F20576F726C6400EB
:00000001FF
